:020000040800F2
:100000000040002041150008590100085D0100086A
:1000100000000000000000000000000000000000E0
:100020000000000000000000000000006101000866
:1000300000000000000000006501000869010008E0
:1000400091150008911500089115000891150008F8
:1000500091150008911500089115000891150008E8
:1000600091150008911500089115000891150008D8
:1000700091150008911500089115000891150008C8
:1000800091150008911500089115000891150008B8
:1000900091150008911500089115000891150008A8
:1000A0009115000891150008911500089115000898
:1000B0009115000891150008911500089115000888
:1000C0000448054B10B5834203D0044B002B00D0ED
:1000D000984710BD0C0000200C000020000000001C
:1000E00006480749091A8B10C90FC91810B54910DD
:1000F00003D0044B002B00D0984710BD0C0000200B
:100100000C0000200000000010B5074C2378002BE5
:1001100009D1FFF7D5FF054B002B02D0044800E0C2
:1001200000BF0123237010BD0C0000200000000060
:1001300094150008054B10B5002B03D00449054861
:1001400000E000BFFFF7CCFF10BDC046000000007C
:1001500010000020941500087047C046FEE7C04616
:100160007047C0467047C04610B500F0B3F810BDE8
:100170000121114B11481A680A431A605A6802405B
:100180005A601A680E4802401A601A680D48024008
:100190001A605A680C4802400F205A60DA6A82439B
:1001A000DA621A6B094802401A635A6B8A435A632F
:1001B00000229A607047C046001002400CB8FF0849
:1001C000FFFFF6FEFFFFFBFFFFFFC0FF2CFEFCFF63
:1001D0000C23164A70B551680B40082B0AD01448FE
:1001E000124B144A5B681B061B0FD35CD840124BA2
:1001F000186070BD0F2150685368D26AC025800C0A
:100200000840114080226D022B40841C01315202B3
:10021000934201D0AB4204D0054801F05DF8604341
:10022000DEE7064801F058F86043D9E700100240C5
:1002300000127A00AC15000800000020006CDC02FF
:100240007047C0467047C0460121002210B5064BDA
:10025000494219611A61D960DA6099629A62FFF7BE
:10026000F1FF002010BDC0460010024070B5040030
:10027000FA200E4D8000297801F02EF80C4B010079
:10028000186801F029F800F017F900280BD10130A7
:10029000032C00D970BD02380022210000F0B0F814
:1002A00000206C60F6E70120F4E7C046040000205F
:1002B000000000201021064A10B5136803200B43EC
:1002C0001360FFF7D3FFFFF7BBFF002010BDC04650
:1002D00000200240034A044B11681B785B1813602E
:1002E0007047C0463C00002004000020014B186805
:1002F0007047C0463C000020014B58687047C0461C
:100300000400002070B5074C0300257800209D42B2
:1003100000D170BD60682370FFF7A8FF0028F8D0F7
:100320002570F6E704000020014B18787047C0469E
:100330000400002070B50400FFF7D8FF0500631C1F
:1003400002D0044B1B78E418FFF7D0FF401BA042FB
:10035000FAD370BD040000200221024A13688B43C7
:100360001360704710E000E00221024A13680B435B
:100370001360704710E000E0004870470003070179
:10038000014B1868000C704700580140024B186878
:100390000005000D7047C04600580140014B186829
:1003A0007047C046ACF7FF1F014B18687047C04646
:1003B000B0F7FF1F014B18687047C046B4F7FF1F26
:1003C0000221024A53680B435360704700580140B2
:1003D0000221024A53688B43536070470058014022
:1003E0000421024A53680B43536070470058014090
:1003F0000421024A53688B43536070470058014000
:1004000070B5002814DB154B03229C46FF2384089B
:1004100010401A00C026C000890182400B40834072
:10042000A4006444B600A55995432B43A35170BD65
:100430000B4A0F239446032203401040FC32150060
:10044000C000890185400A408240083B9B089B0010
:100450006344DC69AC432243DA61E8E700E100E091
:1004600000ED00E0002805DB1F2318401E3B834001
:10047000014A13607047C04600E100E000280ADB33
:100480001F2318401E3B8340802203498B50BFF33B
:100490004F8FBFF36F8F704700E100E0BFF34F8FC6
:1004A000034B044ADA60BFF34F8FC046FDE7C046F6
:1004B00000ED00E00400FA058022431E52040120F2
:1004C00093420ED2C021074A07485360036A0906C7
:1004D0001B021B0A0B4303620023002093600733B7
:1004E0001360704710E000E000ED00E000280BDB37
:1004F00083080D4AC0339B009A5803231840C0005C
:10050000C2409009184070470F23084A03409446A0
:100510000322083B9B089B00634459681040C000BD
:10052000C14088091040EEE700E100E018ED00E06E
:10053000002807DB1F23802218401E3B834002490E
:1005400052008B507047C04600E100E003000020DD
:10055000002B09DB8022054952008858E13A1340FC
:10056000D8400300012018407047C04600E100E079
:10057000002807DB1F23C02218401E3B834002498E
:1005800052008B507047C04600E100E0054A1368F6
:10059000042803D004218B43136070471843106074
:1005A000FBE7C04610E000E07047C04610B5FFF71B
:1005B000FBFF10BDF0B54546DE4657464E46E0B55A
:1005C0000D68002385B0002D00D186E001229346FE
:1005D000714AAA46914688465C4652469C40224053
:1005E00000925246224273D04246526810251100B2
:1005F000A9430191022900D176E003265D00AE40B7
:10060000B44661460768F6438F4339000327174015
:10061000AF40BC460F0061460F43019907600139A6
:10062000012900D87CE0C1680E4041468968A94094
:100630000E4380214905C6600A4249D049465C46BE
:100640008969032521434C46A161A1695C460F26B7
:100650002140524C1D40A446AD00AE400391039989
:100660009908890061448C68B4439026F605B0422D
:1006700012D04B4EB04200D182E04A4EB04200D17F
:1006800082E0494EB04200D176E0484EB04200D1FF
:100690007EE00526AE4034438C604549009C0968E5
:1006A000E443D5034FD4424D214029606968950346
:1006B00050D43F4D21406960A968D50251D43C4DCA
:1006C0002140A960E968920252D42140384AD160A1
:1006D00052460133DA4000D07EE705B0F0BCBB469D
:1006E000B246A946A046F0BD0F27093D1D40AD000A
:1006F000AF40D908890041180E6ABE4347463F699A
:10070000AF403E430E6201685D008C4603216746A0
:10071000A9408F43CE4303211140A94039430160D2
:10072000816831408C464146C9686746A9403943D3
:100730005F4681604168A1430C001109394099402E
:10074000214341606FE7009D2943194D2960696885
:100750009503AED5009D2943154D6960A968D50262
:10076000ADD5009D2943124DA960E9689202ACD530
:10077000009A0A431100A9E70326AE4034438BE7F1
:100780005E46AE40344387E70226AE40344383E7FB
:100790000426AE4034437FE70010024000000140D1
:1007A0000004004800080048000C00480010004801
:1007B00000040140F0B5DE4657464E464546E0B5DA
:1007C000002383B0002965D001229146023293466E
:1007D0003C4A944644E03C4CA04262D03B4CA04290
:1007E00063D03B4CA04264D03A4CA04265D0052473
:1007F000AC402500AE4211D164462568019EBD4340
:1008000025606568BD436560A568BD43A560E56872
:10081000BD43E5604446B568A543B5605E465D00EE
:10082000AE4004683500B4430460DC08A400041939
:10083000266A0727B0460F261F40BF00BE4037007C
:100840004646BE4326628468AC4384604468944351
:100850004460C268AA43C2600A000133DA4019D07A
:100860004A460F009A4017401142F5D01A4D9C0895
:10087000A846A4005D464444A66801940F241D4088
:10088000AD00AC40A04626409024E405A042A2D191
:100890000025AFE703B0F0BCBB46B246A946A04670
:1008A000F0BD4C46AC402500A4E70224AC40250036
:1008B000A0E75C46AC4025009CE70424AC40250042
:1008C00098E7C046000401400004004800080048C2
:1008D000000C00480010004800000140006908407A
:1008E000431E9841C0B27047002A01D08161704711
:1008F0008162FCE74369194202D0090481617047B3
:100900008161FCE7802382B05B020193019B0B4372
:100910000193019BC361C161019BC361C3690193E1
:10092000C36901201B0C984302B070477047C04652
:10093000044B10B55A69104200D110BD5861FFF741
:10094000F5FFFAE700040140F8B5FFF7CFFC81227C
:10095000274D04002B68022613432B6004E0FFF7A9
:10096000C5FC001B02281DD82B681E42F7D06B68FF
:10097000204A0C2613406B601F4F1D4D04E0FFF70B
:10098000B5FC001BB8420DD86B681E42F7D11B4B5B
:100990001B4A1A601B4B1868FFF768FC041E04D042
:1009A000012400E003242000F8BD2B68164A104EF5
:1009B00013402B602B68154A13402B60FFF796FC01
:1009C00080250700AD0404E0FFF790FCC01B02285F
:1009D000E8D833681A002A402B42F5D18023726090
:1009E000F2623263B260726A5B0413437362DAE7E5
:1009F000001002400CF8FFF08813000000000020F7
:100A000000127A0008000020FFFFF6FEFFFFFBFF48
:100A1000F0B5CE46474680B5040083B0002800D12B
:100A200013E10368DA072FD50C21C54842680A4054
:100A3000042A00D12BE142681140082900D11DE1B0
:100A40006368012B00D12CE1002B00D14EE1052B76
:100A500000D179E2BA4BBB491A680A401A601A6899
:100A6000B9490A401A60FFF741FC80260500B44FDF
:100A7000B60205E0FFF73AFC401B642800D933E1D9
:100A80003B683342F6D023689A0729D50C22AC493B
:100A90004868024200D1D1E048680240082A00D1EB
:100AA000C3E0E368A64D002B00D163E101222B686F
:100AB000022713432B60FFF719FC060005E0FFF740
:100AC00015FC801B022800D90EE12B681F42F6D0CE
:100AD000F8212A6823698A43DB0013432B602368CB
:100AE0001A072DD45A0745D580220020944B520571
:100AF000D9698146114208D1D9691143D961DB69AD
:100B00001A400192019B0123994680278F4E7F0056
:100B100033683B4200D1CBE0A368012B00D13CE11C
:100B2000002B00D1FBE0052B00D1C9E10121844B52
:100B30001A6A8A431A621A6A03318A431A6230E1D6
:100B4000E3697F4D002B00D185E001226B6A02270B
:100B500013436B62FFF7CAFB060005E0FFF7C6FB15
:100B6000801B022800D9BFE06B6A1F42F6D02368C1
:100B70005A07B9D4DA0612D56269012A00D1C4E154
:100B8000053200D01FE10420F8256D494A6B8243ED
:100B90004A63486BA269A843D20002434A639B069A
:100BA00022D50C2266494B6813400C2B00D12AE158
:100BB0004B681A40082A00D11EE1236A604D002BC1
:100BC00000D12AE180276B6B7F023B436B63FFF709
:100BD0008DFB060005E0FFF789FB801B022800D98A
:100BE00082E06B6B3B42F6D0636A002B1BD00C2279
:100BF000534D69680A40082A00D16BE1022B00D1ED
:100C000026E12B68524A802613402B60FFF76EFBCB
:100C1000B604040004E0FFF769FB001B022863D858
:100C20002B683342F7D1002010E04A68C021490206
:100C30000A40802109028A4200D032E7404A126805
:100C4000920745D5E268012A42D0012003B0C0BC1A
:100C5000B946B046F0BD01226B6A022793436B622E
:100C6000FFF744FB060004E0FFF740FB801B02286F
:100C70003AD86B6A1F42F7D1236879E7C0214268EE
:100C800049020A40802149028A4200D0D8E62C4A13
:100C90001268920300D4F7E66268002A00D0F3E6F7
:100CA000D3E78023264A5B0211680B431360DAE620
:100CB00033683B433360FFF719FB050004E0FFF79F
:100CC00015FB401B64280FD833683B42F7D023E75D
:100CD000F8251B4822690168D200A9430A43026033
:100CE0001A0700D4FEE62BE70320AFE7144D154AA0
:100CF0002B68802713402B602B68134ABF021340D8
:100D00002B60FFF7F3FA060004E0FFF7EFFA801B11
:100D10006428E9D82B683B42F7D12368B4E6012266
:100D2000074E0C4D336A93433362336A0332934365
:100D30003362FFF7DBFA02230700984611E0C04652
:100D400000100240FFFFFEFFFFFFFBFF00700040AE
:100D5000FFFFFFFE88130000FFF7C8FAC01BA84280
:100D6000C2D84246336A1A42F6D14B46012B68D0AC
:100D70002368FFE601222B68022793432B60FFF7CD
:100D8000B5FA060004E0FFF7B1FA801B0228ABD8E1
:100D90002B681F42F7D12368A2E671490A6A134300
:100DA0000B62FFF7A3FA6E4B0600984602276D4DC3
:100DB00004E0FFF79BFA801BA84295D843461B6AC4
:100DC0001F42F6D0D1E70422654D02276B6B134317
:100DD0006B636B6B033A93436B63FFF787FA060011
:100DE00005E0FFF783FA801B022800D97CE76B6BD4
:100DF0001F42F6D12368D2E6C0224B68520213404C
:100E0000934200D0D9E6564B5B6BDB0300D4EBE694
:100E1000236A012B00D018E7E6E66B6B524A802765
:100E200013406B63FFF762FA7F02060005E0FFF7ED
:100E30005DFA801B022800D956E76B6B3B42F6D166
:100E4000D2E6474A4949D3690B40D361236891E60A
:100E50002B68474A802713402B60FFF747FABF04EF
:100E6000060005E0FFF742FA801B022800D93BE7A5
:100E70002B683B42F6D10F22EB6A394E9343226B2B
:100E80001343EB62A16AE36A6A680B4339490A407B
:100E900013436B6080232A685B0413432B60FFF7C6
:100EA00025FA80250400AD0405E0FFF71FFA001BBA
:100EB000022800D918E733682B42F6D00020C5E697
:100EC0000421274B1A6A0A431A621A6A03390A4331
:100ED0001A6266E7012B00D1B7E6C0236A68A06AF0
:100EE0005B02E96A1340834200D0AEE60F230B4059
:100EF000216B8B4200D0A8E6F0239B031A40E36AE3
:100F00009A4200D0A1E60020A0E60421144D022759
:100F10006B6B0B436B636B6B1A436A63FFF7E6F90A
:100F2000060005E0FFF7E2F9801B022800D9DBE6A6
:100F30006B6B1F42F6D0F8216A6BA3698A43DB0012
:100F400013436B6323682AE68022054BD20219689B
:100F50000A431A608022196852020A431A6082E525
:100F60000010024088130000FFFFFEFFFFFFFFEFAD
:100F7000FFFFFFFEFF7FC2FF022370B586B0029322
:100F8000160001338022049300230D00802190205D
:100F90000C4C5200039301920593626989020A4343
:100FA00062616369C0050B40009301A9009BFFF7D4
:100FB00001FB6168044A114031432943616006B076
:100FC00070BDC04600100240FFFFFF808023034A2F
:100FD0001B0311680B4313607047C04600100240AA
:100FE000024A034913680B40136070470010024027
:100FF000FFFFF7FF70B588B069460A001B4B31CB85
:1010000031C21B68136004AA1000194B70CB70C06A
:101010001B68184D03600C206B68184008280AD024
:101020000C38431E9841144B40421840134B9C46C9
:10103000604408B070BD0F209C0C04400C5DE96A50
:101040000840115CC02280205202134040028342BB
:1010500001D0934204D00A4800F03EF96043E8E72B
:10106000064800F039F96043E3E7C046C4150008BC
:10107000D81500080010024000A69DFD006CDC029F
:1010800000127A00F8B5CE46474604000D0080B540
:1010900000280DD001233F490A681A40AA420CD209
:1010A0000A689A432A430A600A681340AB4204D094
:1010B0000120C0BCB946B046F8BD23689A070ED5DA
:1010C0005A0705D5E0223449D200486802434A60F5
:1010D000F02031494A688243A06802434A60DB0736
:1010E00024D562682C4B012A4AD0022A44D0032A14
:1010F0004CD01B689B07DBD50321274E73688B43BD
:1011000013437360FFF7F2F80C239846234B070054
:10111000994604E0FFF7EAF8C01B484534D8434637
:1011200072681A4063689B009A42F3D10121194A00
:1011300013680B40AB4205D913688B4313601368E7
:101140001942B5D123685B0706D5134A1449536881
:101150000B40E1680B435360FFF74CFF0E4B114A05
:101160005B681B061B0FD35CD8400F4B1860032035
:10117000FFF77CF800209CE71B689B01BCD497E735
:101180001B689B03B8D493E7032092E75B6BDB03F8
:10119000B2D48DE700200240001002408813000006
:1011A000FFF8FFFFAC15000800000020014B186895
:1011B0007047C04600000020044B054A5B685B0591
:1011C0005B0FD35C034A1068D840704700100240A0
:1011D000BC150008000000203F230360264B1A685E
:1011E000520333D5052343600121234A13680B4082
:1011F000C36013681B06DB0E0361136A5B072FD500
:101200000523836001221C4B596A1140C161596B4F
:1012100011404161596B0906C90E8161596B090C76
:101220000A40C02102621A684902D201D20F01327B
:1012300042625A680A40F02182625A6889030A4071
:10124000C262DA6A0F231340036370471A6880236F
:1012500011005B0219401A420BD001234360C3E71F
:10126000136A0A001A40194201D08160CAE78260FD
:10127000C8E74160B8E7C0460010024007230322D8
:1012800003600A4B10B55C6822404260F0225C6843
:1012900022408260E0225B68D2001340C360044BAE
:1012A0001A68012313400B6010BDC04600100240B5
:1012B000002002407047C04610B58024044B9B6854
:1012C0001C4200D110BDFFF7F5FF024B1C70F9E77F
:1012D000001002400A100240002243088B4274D3DF
:1012E00003098B425FD3030A8B4244D3030B8B4227
:1012F00028D3030C8B420DD3FF22090212BA030C30
:101300008B4202D31212090265D0030B8B4219D310
:1013100000E0090AC30B8B4201D3CB03C01A524130
:10132000830B8B4201D38B03C01A5241430B8B4278
:1013300001D34B03C01A5241030B8B4201D30B0361
:10134000C01A5241C30A8B4201D3CB02C01A524188
:10135000830A8B4201D38B02C01A5241430A8B424B
:1013600001D34B02C01A5241030A8B4201D30B0234
:10137000C01A5241CDD2C3098B4201D3CB01C01A4E
:10138000524183098B4201D38B01C01A5241430958
:101390008B4201D34B01C01A524103098B4201D346
:1013A0000B01C01A5241C3088B4201D3CB00C01AB3
:1013B000524183088B4201D38B00C01A524143082B
:1013C0008B4201D34B00C01A5241411A00D2014650
:1013D000524110467047FFE701B5002000F006F8C3
:1013E00002BDC0460029F7D076E770477047C04677
:1013F00070B50C4D0C4E761BB61005D0002408CDF0
:1014000001349847A642FAD100F0C4F8074D084EBF
:10141000761BB61005D0002408CD01349847A642AB
:10142000FAD170BDEC150008EC150008EC150008A9
:10143000F015000830B595B0FEF73CFF2023079368
:10144000C0235B02012402251193002307A80F94F7
:10145000109513941293FFF7DBFA002800D0FEE7F3
:10146000072305900690012103A803930495FFF735
:1014700009FE00285DD180222E4B120359692E4DA2
:101480001143596159692D481140019101995969D8
:1014900011435961596911400291029959691143E7
:1014A000596159691140039103995969114359616F
:1014B0005B6929001A400792079B0323EB603D33C9
:1014C0002B606C60AC60FFF775F8802329005B002F
:1014D0001A482B60FFF76EF8802329009B001748FD
:1014E0002B60FFF767F88023290014482B60FFF773
:1014F00061F840211148FFF7FDF9FA208000FEF75E
:1015000019FF80210D484900FFF7F4F96420FEF728
:1015100011FF802109488900FFF7ECF96420FEF7EC
:1015200009FF80210548FFF7E5F96420FEF702FF77
:10153000DFE7FEE700100240280000200008004816
:101540000D488546002103E00C4B5B5843500431A5
:101550000B480C4B42189A42F6D30B4A02E0002388
:1015600013600432094B9A42F9D3FEF701FEFFF7EC
:101570003FFFFFF75FFFFEE700400020F415000883
:10158000000000200C0000200C0000204000002083
:10159000FEE70000F8B5C046F8BC08BC9E467047A0
:0C15A000F8B5C046F8BC08BC9E46704779
:1015AC000000000000000000010203040607080907
:1015BC0000000000010203040203040506070809E9
:1015CC000A0B0C0D0E0F101000000000010203049A
:1015DC0005060708090A0B0C0D0E0F100000000081
:0415EC0035010008BD
:0415F00009010008E5
:0C15F40000127A0001000000040000005A
:040000050800154199
:00000001FF
